S01700004763634170706C69636174696F6E322E737265635A
S11300000C9438000C9455000C9455000C94550035
S11300100C9455000C9455000C9455000C94550008
S11300200C9455000C9455000C9455000C94D80471
S11300300C9455000C9455000C9455000C945500E8
S11300400C9455000C9455000C9455000C945500D8
S11300500C945500D301DA01E0011002E701ED012F
S1130060F4011002FB0100020602100210020D024C
S113007011241FBECFE5D8E0DEBFCDBF10E0A0E65F
S1130080B0E0EEE9FAE002C005900D92A239B107A2
S1130090D9F720E0A2E9B0E001C01D92AC3AB20762
S11300A0E1F70E94F1030C944D050C940000805D6F
S11300B008955F926F927F928F929F92AF92BF92B8
S11300C0CF92DF92EF92FF920F931F93CF93DF9320
S11300D0CDB7DEB74C01562E6DB67EB6A62EB12C2A
S11300E0C501880F991F880F991F880F991F2DB775
S11300F03EB7281B390B0FB6F8943EBF0FBE2DBF79
S11301008DB79EB701967C0120E030E018C0F9015C
S1130110EE0FFF1FEE0FFF1FE80FF91FEE0FFF1F7B
S1130120EE0DFF1D4AE050E051834083019602C06A
S113013080E090E08430910550F32F5F3F4F2A1503
S11301403B05B0F3C12CD12C45C0F601EE0FFF1FC7
S1130150E80DF91D0190F081E02D00E010E035C0BC
S11301609F01ADECBCEC0E942A05AC015695479565
S11301705695479556954795CA01880F991F440F80
S1130180551F440F551F440F551F480F591FDF01BA
S1130190A41BB50BAD01ADECBCEC0E942A05FC011F
S11301A0F695E795F695E795F695E795D601AA0FA6
S11301B0BB1FAA0FBB1FA00FB11FAA0FBB1FAE0D01
S11301C0BF1D4D935C930F5F1F4F309749F6BFEFF0
S11301D0CB1ADB0ACA14DB0408F4B7CF550C550C50
S11301E02DB73EB7251931090FB6F8943EBF0FBE9F
S11301F02DBF8DB79EB701966C0160E070E040E0C2
S113020050E02AC0FB01EE0FFF1FEE0FFF1FE20FAD
S1130210F31FEE0FFF1FEE0DFF1D0190F081E02D87
S1130220EA30F10541F0F0968601040F151FD8015C
S1130230EC934F5F5F4F2150310902C023E030E05F
S113024024303105F8F2F601E40FF51F2DE2208386
S11302504F5F5F4F6F5F7F4F6A157B0578F34150A7
S11302605109FC01E40FF51F10820E94C4030FB66C
S1130270F8947EBE0FBE6DBEDF91CF911F910F919A
S1130280FF90EF90DF90CF90BF90AF909F908F90B2
S11302907F906F905F900895CF939C01C0E032C02F
S11302A071E07C0F8C2F972F15C0E92FF0E0EE0F33
S11302B0FF1FE20FF31FA081B181E82FF0E0EE0FE2
S11302C0FF1FE20FF31F40815181A417B50708F403
S11302D0892F9F5F961748F3E82FF0E0EE0FFF1F7A
S11302E0E20FF31F80819181AC2FB0E0AA0FBB1FF6
S11302F0A20FB31F4D915C911197518340838D934D
S11303009C93C72F4C2F50E0862F90E001974817FD
S1130310590734F2CF9108958091A9008F5F80939B
S1130320A9008E33E9F48091A8008130C9F40E94B9
S1130330ED03E0919300F0E0EE0FFF1FEC56FF4F4A
S1130340808191810E945504809193008F5F8093F6
S113035093001092A90080919200815080939200A2
S11303600895C0E0D0E0E12CF12C10E00E94CB0411
S11303700E94BD028F3F09F4D1C0143008F08DC033
S11303808C3009F48AC08E3009F487C08F3009F4A8
S113039084C090E08E30910508F042C0FC01E65D17
S11303A0FF4F0C9424051F5F0F2EF7E0EF2EF12C66
S11303B0F02D36C01F5F6894EE24E3F8F12C30C0B2
S11303C01F5F0F2EF9E0EF2EF12CF02D29C01F5FD7
S11303D06894EE24E2F8F12C23C01F5F0F2EF5E0A1
S11303E0EF2EF12CF02D1CC01F5F0F2EF6E0EF2E28
S11303F0F12CF02D15C01F5FEE24E394F12C10C0F6
S11304001F5F6894EE24E1F8F12C0AC01F5F0F2EE1
S1130410F3E0EF2EF12CF02D03C01F5FE12CF12C43
S1130420123061F018F4113031F031C01330A1F002
S1130430143001F12CC0CE0DDF1D29C0CE01880F70
S1130440991FCC0FDD1FCC0FDD1FCC0FDD1FC80F94
S1130450D91FCE0DDF1D1BC0CE01880F991FCC0FF5
S1130460DD1FCC0FDD1FCC0FDD1FC80FD91FCE0D34
S1130470DF1D0DC0CE01880F991FCC0FDD1FCC0FDF
S1130480DD1FCC0FDD1FC80FD91FCE0DDF1D8E2D34
S11304900E9457000E948B0341C08F30A1F480E278
S11304A00E948B0380919200E82FF0E0EE0FFF1F73
S11304B0EC56FF4FD183C0838F5F80939200C0E0DE
S11304C0D0E010E02BC08E30A9F40E94ED036091BF
S11304D0920084E990E00E944C016091920084E9CA
S11304E090E00E94590081E08093A80089E1809304
S11304F0A90014C08C3091F40E94ED038091920005
S1130500E82FF0E0EE0FFF1FEC56FF4FD183C083BE
S11305108F5F80939200C0E0D0E010E02FEF8BEA71
S11305209DE0215080409040E1F700C000001ECFC4
S113053081B38F7781BB81B38F7B81BB81B38F7D87
S113054081BB81B3877F81BB84B3806284BB84B366
S1130550806184BB84B3886084BB84B3846084BBBF
S113056082B3806882BB82B3806482BB82B38062C0
S113057082BB82B3886082BB08958FEFE5E062C0DE
S113058095B39C6395BB95B36E2F70E021E030E08A
S11305900E2E02C0220F331F0A94E2F7209529235E
S11305A025BB97E04BC0943009F4915020B3492FF8
S11305B050E030E0092E02C0359527950A94E2F701
S11305C020FD3BC02FE33DE0F3E021503040F040FC
S11305D0E1F700C0000020B330E0092E02C03595D9
S11305E027950A94E2F720FD28C0933099F485E01A
S11305F090E0861B970B26E030E0241B350B880F18
S1130600991F880F991F805A9F4FDC01A20FB31FB7
S11306108C9117C085E090E0861B970B27E030E0B3
S1130620241B350B880F991F880F991F805A9F4FE1
S1130630DC01A20FB31F8C9104C09150933008F0D9
S1130640B2CFE150E23008F09BCF2FE936E891E0D9
S1130650215030409040E1F700C00000089598B365
S1130660987E98BB38B3282F22952F70922F9870BC
S1130670492F50E0440F551F2770422B432B48BB92
S11306809BB3977F9BBB9BB394609BBB00009BB3C6
S11306909B7F9BBBE3EFF1E03197F1F700C00000D3
S11306A098B3987E98BB48B3982F9870292F30E060
S11306B0220F331F8770282B242B28BB8BB3846015
S11306C08BBB00008BB38B7F8BBB83EF91E00197D7
S11306D0F1F700C00000089587B3876187BB8AB330
S11306E08C608ABB85EA9EE00197F1F700C00000A8
S11306F082E00E942F0388E20E942F038CE00E9474
S11307002F0386E00E942F0381E00E942F0380E8DC
S11307100E942F03089598B3987E98BB38B3282F6E
S113072022952F70922F9870492F50E0440F551F37
S11307302770422B432B48BB9BB398609BBB9BB356
S113074094609BBB00009BB39B7F9BBB91E29A95FB
S1130750F1F7000098B3987E98BB48B3982F98702F
S1130760292F30E0220F331F8770282B242B28BB1E
S11307708BB384608BBB00008BB38B7F8BBB81E21C
S11307808A95F1F7000008950F931F93CF93DF9399
S11307908C01C0E0D0E003C00E948B032196F801D5
S11307A0EC0FFD1F80818111F7CFDF91CF911F9155
S11307B00F910895813039F058F0823031F0833050
S11307C031F060E005C0605C03C06C5E01C06C5A2F
S11307D0862F80680E942F03089581E00E942F03D2
S11307E00895CF93DF93CDB7DEB764970FB6F8942F
S11307F0DEBF0FBECDBF8E010F5F1F4F84E1F80136
S113080011928A95E9F70E9498020E946C030E9453
S11308102B040E9401058CE891E00E940B0580E7FF
S113082090E00E94C40361E082E00E94DA0380E861
S113083090E00E94C4030E94B10160E0C8010E94DC
S11308404C0180E00E94570060E0C8010E945900FA
S11308500E948C01FFCF87B3816087BB87B382601E
S113086087BB87B3846087BB87B3806187BB88B34A
S1130870887E88BB87B3806487BB87B3806287BB6D
S11308808AB384608ABB8AB388608ABB089528B31C
S1130890287E28BB48B39C0128703327220F331FBE
S11308A08770282B242B28BB0895AF92BF92CF9238
S11308B0DF92EF92FF920F931F93CF93DF93FC018C
S11308C068EE73E00E941005CB012AE030E0B90124
S11308D00E9410057C01CF0164E670E00E941005BF
S11308E0CB01B9010E9410058C01CF01B9010E940E
S11308F01005A82EB92ECB01B9010E941005EC01F8
S1130900C12CD12C38C0C7010E9447048FE39FE15A
S11309100197F1F700C0000088B320E4282728BB22
S1130920C8010E9447048FE39FE10197F1F700C0DB
S1130930000088B320E2282728BBCE010E94470488
S11309408FE39FE10197F1F700C000008BB324E02F
S113095028272BBB8A2D9B2D0E9447048FE39FE100
S11309600197F1F700C000008BB328E028272BBBC8
S113097095E0C90ED11C88EEC81683E0D80618F29B
S1130980DF91CF911F910F91FF90EF90DF90CF9067
S1130990BF90AF90089588B3806488BB88B38062A9
S11309A088BB8BB384608BBB8BB388608BBB08958F
S11309B01F920F920FB60F9211242F933F934F93D0
S11309C05F936F937F938F939F93AF93BF93EF93B3
S11309D0FF93E091AA00F091AB00309709F00995DC
S11309E0FF91EF91BF91AF919F918F917F916F9103
S11309F05F914F913F912F910F900FBE0F901F90D9
S1130A00189512BE89B7816089BF85E883BF8FB707
S1130A1080688FBF08959093AB008093AA000895D7
S1130A2097FB072E16F4009407D077FD09D00E9497
S1130A30390507FC05D03EF4909581959F4F0895A4
S1130A40709561957F4F0895EE0FFF1F0590F49107
S1130A50E02D0994A29FB001B39FC001A39F700D24
S1130A60811D1124911DB29F700D811D1124911DB2
S1130A700895AA1BBB1B51E107C0AA1FBB1FA617E1
S1130A80B70710F0A61BB70B881F991F5A95A9F733
S1110A9080959095BC01CD010895F894FFCF98
S1130A9E000102030405060708090A0B0C0D0E0FCC
S1130AAE202020202048454C4C4F2021212121007C
S1130ABE2020454E54455220594F5552204C4953EF
S1050ACE5400CE
S9030000FC
