:100000000C942A000C9447000C94D2080C944700DE
:100010000C9447000C9447000C9447000C94470044
:100020000C9447000C9447000C9447000C94D11793
:100030000C9447000C9447000C9447000C94470024
:100040000C9447000C9447000C9447000C94470014
:100050000C94470011241FBECFE5D8E0DEBFCDBF12
:1000600010E0A0E6B0E0EAE8F8E302C005900D92E7
:10007000AA39B107D9F710E0AAE9B0E001C01D9292
:10008000A53BB107E1F70E94621A0C94431C0C9443
:100090000000EF92FF920F931F937B018C0120E0F1
:1000A00030E040E05FE40E94F50388238CF0C80153
:1000B000B70120E030E040E05FE40E94C1010E940F
:1000C00055049B01AC01205030404040504806C0D0
:1000D000C801B7010E9455049B01AC01B901CA01D6
:1000E0001F910F91FF90EF900895A0E0B0E0EBE733
:1000F000F0E00C940C1CDC012B01FA019C91923075
:1001000008F439C1EB018881823008F433C194309E
:1001100069F4843009F02FC111969C91119789815F
:10012000981709F428C1A2E8B0E025C1843009F489
:1001300021C18230A9F4923009F01DC19A01AD01AC
:1001400088E0EA010990AE01E90109929E0181501F
:10015000C1F7E201898111969C918923818308C1AD
:10016000923009F407C112962D903C901397EB0141
:100170008A819B811496AD90BD90CD90DC901797AD
:10018000EC80FD800E811F819101281B390BB90184
:1001900037FF04C066277727621B730B6032710537
:1001A0000CF061C0121613066CF537014801062EDB
:1001B00004C096948794779467940A94D2F721E0C8
:1001C00030E040E050E004C0220F331F441F551FB1
:1001D0006A95D2F721503040404050402E213F21B7
:1001E00040235123211531054105510521F021E01E
:1001F00030E040E050E079018A01E628F72808293C
:1002000019293CC0232BD1F1260E371E350146019A
:10021000062E04C096948794779467940A94D2F734
:1002200021E030E040E050E004C0220F331F441FC3
:10023000551F6A95D2F721503040404050402A2146
:100240003B214C215D21211531054105510521F04E
:1002500021E030E040E050E059016A01A628B728CB
:10026000C828D9280BC0821593052CF01C01AA249C
:10027000BB24650103C0EE24FF24870111969C91E5
:10028000D20111968C91981709F445C0992339F041
:10029000A80197012A193B094C095D0906C0A6016E
:1002A00095012E193F09400B510B57FD08C01182D3
:1002B0003382228224833583468357831DC081E0A5
:1002C00081833382228288279927DC01821B930B4A
:1002D000A40BB50B84839583A683B7830DC0220F2F
:1002E000331F441F551F24833583468357838281E0
:1002F000938101979383828324813581468157813D
:10030000DA01C9010197A109B1098F5F9F4FAF4F72
:10031000BF4328F30BC0918333822282EA0CFB1C7B
:100320000C1D1D1DE482F5820683178383E0808304
:10033000248135814681578157FF1AC0C901AA27F8
:1003400097FDA095BA2F81709070A070B0705695EF
:10035000479537952795822B932BA42BB52B848318
:100360009583A683B7838281938101969383828349
:10037000DF0101C0D201CD01CDB7DEB7E2E10C94BF
:10038000281CA0E2B0E0E7ECF1E00C94181C6983B3
:100390007A838B839C832D833E834F835887E9E048
:1003A000EE2EF12CEC0EFD1ECE010196B7010E943F
:1003B0007E058E010F5E1F4FCE010596B8010E948B
:1003C0007E058A8991E089278A8BC701B801AE0131
:1003D000475E5F4F0E9475000E94A904A096E6E068
:1003E0000C94341CA0E2B0E0E8EFF1E00C94181C8F
:1003F00069837A838B839C832D833E834F835887C5
:10040000F9E0EF2EF12CEC0EFD1ECE010196B701A6
:100410000E947E058E010F5E1F4FCE010596B8012A
:100420000E947E05C701B801AE01475E5F4F0E9482
:1004300075000E94A904A096E6E00C94341CA0E28A
:10044000B0E0E5E2F2E00C940C1C69837A838B83C4
:100450009C832D833E834F835887CE010196BE0136
:10046000675F7F4F0E947E05CE010596BE016F5EDD
:100470007F4F0E947E059985923088F0898982306D
:10048000C8F0943019F4823051F404C0843029F457
:10049000923081F482E890E0C6C0923049F420E0C6
:1004A0009A858A89981321E02A87CE010996BBC0D4
:1004B000823049F420E09A858A89981321E02A8BBA
:1004C000CE014196B0C02D843E844F8458886D88FB
:1004D0007E888F88988CEE24FF248701AA24BB2471
:1004E000650140E050E060E070E0E0E0F0E0C10174
:1004F00081709070892BE9F0E60CF71C081D191D1E
:100500009A01AB012A0D3B1D4C1D5D1D80E090E062
:10051000A0E0B0E0E614F7040805190520F481E036
:1005200090E0A0E0B0E0BA01A901480F591F6A1F8E
:100530007B1FAA0CBB1CCC1CDD1C97FE08C081E0F5
:1005400090E0A0E0B0E0A82AB92ACA2ADB2A3196B6
:10055000E032F10549F0660C771C881C991C569412
:10056000479437942794C3CFFA85EA892B893C892D
:100570008B859C85280F391F2E5F3F4F17C0CA01FE
:1005800081709070892B61F016950795F794E79428
:1005900080E090E0A0E0B0E8E82AF92A0A2B1B2BC3
:1005A00076956795579547952F5F3F4F77FDE7CF36
:1005B0000CC0440F551F661F771F17FD4160EE0CDE
:1005C000FF1C001F111F21503040403090E05907A0
:1005D00090E0690790E4790760F32B8F3C8FDB0193
:1005E000CA018F779070A070B07080349105A1051A
:1005F000B10561F447FD0AC0E114F10401051105DC
:1006000029F0405C5F4F6F4F7F4F40781A8EFE1786
:1006100011F081E08A8F4D8F5E8F6F8F78A383E01A
:10062000898FCE0149960E94A904A096E2E10C941C
:10063000281CA8E1B0E0EFE1F3E00C94141C6983FE
:100640007A838B839C832D833E834F835887B9E0C5
:10065000EB2EF12CEC0EFD1ECE010196B7010E948F
:100660007E058E010F5E1F4FCE010596B8010E94D8
:100670007E052985223008F47EC03989323010F495
:10068000B8017CC08A859A8989278A87243011F02D
:10069000223031F4231709F06EC062E870E06EC0BA
:1006A000343039F41D861E861F86188A1C861B86E8
:1006B00004C0323021F484E08987B7015FC02B8504
:1006C0003C858B899C89281B390B3C872B87ED84C3
:1006D000FE840F851889AD88BE88CF88D88CEA142F
:1006E000FB040C051D0540F4EE0CFF1C001F111F40
:1006F000215030403C872B8720E030E040E050E044
:1007000080E090E0A0E0B0E460E070E0EA14FB0478
:100710000C051D0540F0282B392B4A2B5B2BEA18C2
:10072000FB080C091D09B695A79597958795EE0CC2
:10073000FF1C001F111F6F5F7F4F6F31710531F775
:10074000DA01C9018F779070A070B0708034910584
:10075000A105B10561F427FD0AC0E114F10401050A
:10076000110529F0205C3F4F4F4F5F4F20782D87B8
:100770003E874F87588BBE01675F7F4FCB010E943A
:10078000A9046896EAE00C94301CA8E1B0E0EBEC18
:10079000F3E00C94181C69837A838B839C832D83EC
:1007A0003E834F83588789E0E82EF12CEC0EFD1E26
:1007B000CE010196B7010E947E058E010F5E1F4F8C
:1007C000CE010596B8010E947E058985823040F0F1
:1007D0008989823028F0C701B8010E94F60501C05E
:1007E0008FEF6896E6E00C94341CA8E1B0E0EBEFE4
:1007F000F3E00C94181C69837A838B839C832D838C
:100800003E834F83588789E0E82EF12CEC0EFD1EC5
:10081000CE010196B7010E947E058E010F5E1F4F2B
:10082000CE010596B8010E947E058985823040F090
:100830008989823028F0C701B8010E94F60501C0FD
:100840008FEF6896E6E00C94341CA8E1B0E0EBE290
:10085000F4E00C94181C69837A838B839C832D832A
:100860003E834F83588789E0E82EF12CEC0EFD1E65
:10087000CE010196B7010E947E058E010F5E1F4FCB
:10088000CE010596B8010E947E058985823040F030
:100890008989823028F0C701B8010E94F60501C09D
:1008A00081E06896E6E00C94341CACE0B0E0EBE547
:1008B000F4E00C941C1C69837A838B839C83CE01A7
:1008C0000196BE016B5F7F4F0E947E058D81823055
:1008D00061F1823050F1843021F48E81882351F10E
:1008E0002EC02F81388537FD20C06E812F31310514
:1008F0001CF06623F9F023C08EE190E0821B930B7D
:1009000029853A854B855C8504C056954795379572
:1009100027958A95D2F76623B1F05095409530958A
:1009200021953F4F4F4F5F4F0EC020E030E040E039
:1009300050E009C02FEF3FEF4FEF5FE704C020E02A
:1009400030E040E050E8B901CA012C96E2E00C9496
:10095000381CDF92EF92FF920F931F93FC01E4800B
:10096000F58006811781D1808081823048F480E053
:1009700090E0A0E1B0E0E82AF92A0A2B1B2BA5C0E1
:10098000843009F49FC0823021F4EE24FF248701D3
:1009900005C0E114F1040105110519F4E0E0F0E0EF
:1009A00096C0628173819FEF623879070CF05BC05B
:1009B00022E83FEF261B370B2A3131052CF020E0CF
:1009C00030E040E050E02AC0B801A701022E04C088
:1009D00076956795579547950A94D2F781E090E010
:1009E000A0E0B0E004C0880F991FAA1FBB1F2A9582
:1009F000D2F70197A109B1098E219F21A023B1232C
:100A00000097A105B10521F081E090E0A0E0B0E001
:100A10009A01AB01282B392B4A2B5B2BDA01C90138
:100A20008F779070A070B07080349105A105B105EA
:100A300039F427FF09C0205C3F4F4F4F5F4F04C080
:100A4000215C3F4F4F4F5F4FE0E0F0E02030A0E0EF
:100A50003A07A0E04A07A0E45A0710F0E1E0F0E00E
:100A600079018A0127C06038710564F5FB01E158FE
:100A7000FF4FD801C7018F779070A070B07080349D
:100A80009105A105B10539F4E7FE0DC080E490E0C1
:100A9000A0E0B0E004C08FE390E0A0E0B0E0E80E9A
:100AA000F91E0A1F1B1F17FF05C016950795F7941F
:100AB000E794319687E016950795F794E7948A9521
:100AC000D1F705C0EE24FF248701EFEFF0E06E2F91
:100AD000679566276795902F9F77D794DD24D794E5
:100AE0008E2F8695492F462B582F5D29B701CA01B5
:100AF0001F910F91FF90EF90DF900895FC01DB01B3
:100B0000408151812281622F6F7770E0221F22275E
:100B1000221F9381892F880F822B282F30E0991F65
:100B20009927991F11969C93119721153105A9F5C5
:100B3000411551056105710511F482E037C082E865
:100B40009FEF13969C938E9312979A01AB0167E0E7
:100B5000220F331F441F551F6A95D1F783E08C93F2
:100B60000DC0220F331F441F551F12968D919C916B
:100B70001397019713969C938E931297203080E0E1
:100B8000380780E0480780E4580758F314962D93FF
:100B90003D934D935C93179708952F3F310579F45A
:100BA000411551056105710519F484E08C93089590
:100BB00064FF03C081E08C9312C01C9210C02F57B9
:100BC000304013963C932E93129783E08C9387E0EA
:100BD000440F551F661F771F8A95D1F770641496CE
:100BE0004D935D936D937C93179708951F93DC014C
:100BF000FB019C91923008F447C08081823008F458
:100C000043C0943051F411961C91843099F5818140
:100C1000682F70E0611B71093FC0843021F0923071
:100C200031F48230B9F18181882389F12DC0119688
:100C30001C9111978230F1F081811817D9F4129626
:100C40002D913C911397828193818217930794F0A1
:100C500028173907BCF014968D919D910D90BC9189
:100C6000A02D2481358146815781281739074A07ED
:100C70005B0718F4112341F00AC082179307A407F9
:100C8000B50740F4112319F061E070E005C06FEF83
:100C90007FEF02C060E070E0CB011F910895DF9309
:100CA000CF93CDB7DEB7A1E3B0E0E1E3F0E0808120
:100CB000877F8C93A1E3B0E0E1E3F0E080818F7D5A
:100CC0008C93A1E3B0E0E1E3F0E080818F7B8C9333
:100CD000A1E3B0E0E1E3F0E080818F778C93A2E3C1
:100CE000B0E0E2E3F0E0808188608C93A2E3B0E0C2
:100CF000E2E3F0E0808180628C93A2E3B0E0E2E383
:100D0000F0E0808180648C93A2E3B0E0E2E3F0E065
:100D1000808180688C93CF91DF910895DF93CF938A
:100D2000CDB7DEB7E9970FB6F894DEBF0FBECDBFE3
:100D30008FEF89AFE0E3F0E0808186958695869518
:100D4000882F90E081709070009709F082C080E059
:100D500090E0A6E1B3E48DAB9EABAFABB8AF6DA9AD
:100D60007EA98FA998AD20E030E04AE755E40E94C3
:100D70001F02DC01CB0189AB9AABABABBCAB69A961
:100D80007AA98BA99CA920E030E040E85FE30E94AB
:100D9000250488232CF481E090E098AB8FA73FC016
:100DA00069A97AA98BA99CA920E03FEF4FE757E4F6
:100DB0000E94C50318164CF56DA97EA98FA998ADA0
:100DC00020E030E040E251E40E941F02DC01CB0150
:100DD000BC01CD010E944900DC01CB0198AB8FA77B
:100DE0000FC080E991E09EA78DA78DA59EA50197D4
:100DF000F1F79EA78DA78FA598A9019798AB8FA70C
:100E00008FA598A9009769F714C069A97AA98BA939
:100E10009CA90E944900DC01CB0198AB8FA78FA54C
:100E200098A99CA78BA78BA59CA50197F1F79CA7D8
:100E30008BA7E0E3F0E08081869586958695882FE4
:100E400090E081709070009709F0A2C181E089AFB5
:100E50009FC1E0E3F0E08081829586958770882FBE
:100E600090E081709070009709F082C080E090E07F
:100E7000A6E1B3E48FA398A7A9A7BAA76FA178A505
:100E800089A59AA520E030E04AE755E40E941F02B8
:100E9000DC01CB018BA39CA3ADA3BEA36BA17CA162
:100EA0008DA19EA120E030E040E85FE30E94250490
:100EB00088232CF481E090E09AA389A33FC06BA122
:100EC0007CA18DA19EA120E03FEF4FE757E40E9457
:100ED000C50318164CF56FA178A589A59AA520E041
:100EE00030E040E251E40E941F02DC01CB01BC0172
:100EF000CD010E944900DC01CB019AA389A30FC058
:100F000080E991E098A38F8F8F8D98A10197F1F7D9
:100F100098A38F8F89A19AA101979AA389A389A1E8
:100F20009AA1009769F714C06BA17CA18DA19EA125
:100F30000E944900DC01CB019AA389A389A19AA14F
:100F40009E8F8D8F8D8D9E8D0197F1F79E8F8D8F4A
:100F5000E0E3F0E08081829586958770882F90E0AD
:100F600081709070009709F013C182E089AF10C1C1
:100F7000E0E3F0E080818295869586958370882FE6
:100F800090E081709070009709F083C080E090E05D
:100F9000A6E1B3E4898F9A8FAB8FBC8F698D7A8D70
:100FA0008B8D9C8D20E030E04AE755E40E941F02C3
:100FB000DC01CB018D8B9E8BAF8BB88F6D897E89C9
:100FC0008F89988D20E030E040E85FE30E9425049F
:100FD00088232CF481E090E09C8B8B8B3FC06D8943
:100FE0007E898F89988D20E03FEF4FE757E40E947C
:100FF000C50318164CF5698D7A8D8B8D9C8D20E07C
:1010000030E040E251E40E941F02DC01CB01BC0150
:10101000CD010E944900DC01CB019C8B8B8B0FC062
:1010200080E991E09A8B898B89899A890197F1F7F8
:101030009A8B898B8B899C8901979C8B8B8B8B8955
:101040009C89009769F714C06D897E898F89988D76
:101050000E944900DC01CB019C8B8B8B8B899C8986
:10106000988B8F878F8598890197F1F7988B8F8759
:10107000E0E3F0E080818295869586958370882FE5
:1010800090E081709070009709F082C083E089AF92
:101090007FC0E0E3F0E0808188230CF479C080E039
:1010A00090E0A6E1B3E48B879C87AD87BE876B8514
:1010B0007C858D859E8520E030E04AE755E40E94DE
:1010C0001F02DC01CB018F839887A987BA876F81C4
:1010D000788589859A8520E030E040E85FE30E94CA
:1010E000250488232CF481E090E09E838D833FC00B
:1010F0006F81788589859A8520E03FEF4FE757E437
:101100000E94C50318164CF56B857C858D859E85E0
:1011100020E030E040E251E40E941F02DC01CB01FC
:10112000BC01CD010E944900DC01CB019E838D836F
:101130000FC080E991E09C838B838B819C81019718
:10114000F1F79C838B838D819E8101979E838D8394
:101150008D819E81009769F714C06F81788589859C
:101160009A850E944900DC01CB019E838D838D818D
:101170009E819A83898389819A810197F1F79A8365
:101180008983E0E3F0E08081882314F084E089AF74
:1011900089ADE9960FB6F894DEBF0FBECDBFCF91F3
:1011A000DF9108951F920F920FB60F9211242F9383
:1011B0003F934F935F936F937F938F939F93AF93DF
:1011C000BF93EF93FF93DF93CF93CDB7DEB78091BB
:1011D0009A0090919B00009729F0E0919A00F0917D
:1011E0009B000995CF91DF91FF91EF91BF91AF9156
:1011F0009F918F917F916F915F914F913F912F912F
:101200000F900FBE0F901F901895DF93CF93CDB71F
:10121000DEB7AFE5B0E0EFE5F0E080818F778C934B
:10122000A1E3B0E0E1E3F0E08081877F8C93A2E36B
:10123000B0E0E2E3F0E0808188608C93ABE5B0E061
:10124000EBE5F0E0808180688C93A5E5B0E0E5E512
:10125000F0E0808188608C93A5E5B0E0E5E5F0E002
:1012600080818B7F8C93AFE5B0E0EFE5F0E080818B
:1012700080688C93CF91DF910895DF93CF9300D056
:10128000CDB7DEB79A83898389819A8190939B0039
:1012900080939A000F900F90CF91DF910895DF9384
:1012A000CF93CDB7DEB7A1E3B0E0E1E3F0E080811A
:1012B0008F778C93A1E3B0E0E1E3F0E080818F7B56
:1012C0008C93A1E3B0E0E1E3F0E080818F7D8C932B
:1012D000A1E3B0E0E1E3F0E08081877F8C93A4E3B9
:1012E000B0E0E4E3F0E0808180628C93A4E3B0E0BE
:1012F000E4E3F0E0808180618C93A4E3B0E0E4E378
:10130000F0E0808188608C93A4E3B0E0E4E3F0E057
:10131000808184608C93A2E3B0E0E2E3F0E080811E
:1013200080688C93A2E3B0E0E2E3F0E08081806427
:101330008C93A2E3B0E0E2E3F0E0808180628C93E2
:10134000A2E3B0E0E2E3F0E0808188608C93CF918B
:10135000DF910895DF93CF93CDB7DEB76F970FB6C8
:10136000F894DEBF0FBECDBF8FEF8D8F85E08E8FDF
:1013700007C1A5E3B0E0E5E3F0E080818C638C93E6
:10138000A5E3B0E0E5E3F0E08081482F8E8D282FC3
:1013900030E081E090E0022E02C0880F991F0A948D
:1013A000E2F7809584238C9387E08F8FE2C08F8D46
:1013B000843019F48F8D81508F8FE0E3F0E08081CD
:1013C000282F30E08F8D882F90E0A90102C055951D
:1013D00047958A95E2F7CA0181709070009709F0ED
:1013E000C5C080E090E0A6E1B3E4898F9A8FAB8F0F
:1013F000BC8F698D7A8D8B8D9C8D20E030E04AE723
:1014000055E40E941F02DC01CB018D8B9E8BAF8BBC
:10141000B88F6D897E898F89988D20E030E040E813
:101420005FE30E94250488232CF481E090E09C8BEC
:101430008B8B3FC06D897E898F89988D20E03FEF2F
:101440004FE757E40E94C50318164CF5698D7A8D55
:101450008B8D9C8D20E030E040E251E40E941F0221
:10146000DC01CB01BC01CD010E944900DC01CB01B4
:101470009C8B8B8B0FC080E991E09A8B898B89893B
:101480009A890197F1F79A8B898B8B899C890197AF
:101490009C8B8B8B8B899C89009769F714C06D8915
:1014A0007E898F89988D0E944900DC01CB019C8B3D
:1014B0008B8B8B899C89988B8F878F8598890197D7
:1014C000F1F7988B8F87E0E3F0E08081282F30E000
:1014D0008F8D882F90E0B90102C0759567958A9528
:1014E000E2F7CB0181709070009709F03FC08F8DBB
:1014F0008330F1F48E8D282F30E085E090E0AC0150
:10150000421B530B8F8D282F30E086E090E0BC010A
:10151000621B730B9B01CA01880F991F880F991FCB
:10152000820F931FFC01E657FF4F80818D8F25C0EE
:101530008E8D282F30E085E090E0AC01421B530BEC
:101540008F8D282F30E087E090E0BC01621B730B89
:101550009B01CA01880F991F880F991F820F931F43
:10156000FC01E657FF4F80818D8F07C08F8D815022
:101570008F8F8F8D833008F01ACF8E8D81508E8F94
:101580008E8D823008F0F5CE80E090E0A8ECB2E4D9
:101590008B879C87AD87BE876B857C858D859E8577
:1015A00020E030E04AE755E40E941F02DC01CB0155
:1015B0008F839887A987BA876F81788589859A856F
:1015C00020E030E040E85FE30E94250488232CF40B
:1015D00081E090E09E838D833FC06F81788589850F
:1015E0009A8520E03FEF4FE757E40E94C5031816A5
:1015F0004CF56B857C858D859E8520E030E040E252
:1016000051E40E941F02DC01CB01BC01CD010E940C
:101610004900DC01CB019E838D830FC080E991E0FE
:101620009C838B838B819C810197F1F79C838B83B7
:101630008D819E8101979E838D838D819E810097F0
:1016400069F714C06F81788589859A850E94490061
:10165000DC01CB019E838D838D819E819A8389835A
:1016600089819A810197F1F79A8389838D8D6F968D
:101670000FB6F894DEBF0FBECDBFCF91DF910895B6
:10168000DF93CF93CDB7DEB72E970FB6F894DEBFBA
:101690000FBECDBFA7E3B0E0E7E3F0E08081876154
:1016A0008C93AAE3B0E0EAE3F0E080818C608C9355
:1016B00080E090E0A0E7B1E48B879C87AD87BE8790
:1016C0006B857C858D859E8520E030E04AE755E47A
:1016D0000E941F02DC01CB018F839887A987BA87FC
:1016E0006F81788589859A8520E030E040E85FE366
:1016F0000E94250488232CF481E090E09E838D8352
:101700003FC06F81788589859A8520E03FEF4FE75C
:1017100057E40E94C50318164CF56B857C858D85B2
:101720009E8520E030E040E251E40E941F02DC018F
:10173000CB01BC01CD010E944900DC01CB019E839D
:101740008D830FC080E991E09C838B838B819C818A
:101750000197F1F79C838B838D819E8101979E83F6
:101760008D838D819E81009769F714C06F81788584
:1017700089859A850E944900DC01CB019E838D8377
:101780008D819E819A83898389819A810197F1F75E
:101790009A83898382E00E94E50B88E20E94E50B30
:1017A0008CE00E94E50B86E00E94E50B81E00E9440
:1017B000E50B80E80E94E50B2E960FB6F894DEBF8D
:1017C0000FBECDBFCF91DF9108950F931F93DF938D
:1017D000CF93CDB7DEB7CD54D0400FB6F894DEBF6F
:1017E0000FBECDBFFE01E35BFF4F8083A8E3B0E0F7
:1017F000E8E3F0E08081887E8C93A8E3B0E0E8E342
:10180000F0E08081282FFE01E35BFF4F808182950D
:101810008F70882F90E088709070880F991F982F94
:10182000FE01E35BFF4F808182958F708770892B6B
:10183000822B8C93ABE3B0E0EBE3F0E08081877F19
:101840008C93ABE3B0E0EBE3F0E0808184608C93B9
:10185000FE01E75BFF4F80E090E0A0E8BFE38083FC
:101860009183A283B3838E010B5B1F4FFE01E75B65
:10187000FF4F60817181828193812BEA3AEA4AEAC3
:1018800050E40E941F02DC01CB01F80180839183A8
:10189000A283B383FE01EB5BFF4F60817181828184
:1018A000938120E030E040E85FE30E942504882334
:1018B00034F4FE01EC5BFF4F81E08083A7C0FE01A2
:1018C000EB5BFF4F608171818281938120E030E08A
:1018D0004FE753E40E94C50318160CF087C0FE01C1
:1018E000E75BFF4F608171818281938120E030E06E
:1018F0004AE754E40E941903DC01CB01FE01E05CDD
:10190000FF4F80839183A283B383FE01E05CFF4F8E
:10191000608171818281938120E030E04AE755E463
:101920000E941F02DC01CB018CAF9DAFAEAFBFAFF9
:101930006CAD7DAD8EAD9FAD20E030E040E85FE363
:101940000E94250488232CF481E090E09BAF8AAFAD
:1019500042C06CAD7DAD8EAD9FAD20E03FEF4FE757
:1019600057E40E94C503181664F5FE01E05CFF4FC2
:10197000608171818281938120E030E040E251E416
:101980000E941F02DC01CB01BC01CD010E94490075
:10199000DC01CB019BAF8AAF0FC080E991E099AF2A
:1019A00088AF88AD99AD0197F1F799AF88AF8AAD4F
:1019B0009BAD01979BAF8AAF8AAD9BAD009769F74E
:1019C0002EC06CAD7DAD8EAD9FAD0E944900DC0197
:1019D000CB019BAF8AAF8AAD9BAD9FAB8EAB8EA97F
:1019E0009FA90197F1F79FAB8EAB19C08E010C5BDD
:1019F0001F4FFE01EB5BFF4F6081718182819381FC
:101A00000E944900DC01CB01F8018083FE01EC5B00
:101A1000FF4F80818DAB8DA98A95F1F78DABABE33C
:101A2000B0E0EBE3F0E080818B7F8C9380E090E08E
:101A3000A0E0B0E489AB9AABABABBCAB69A97AA927
:101A40008BA99CA920E030E04AE755E40E941F02E0
:101A5000DC01CB018DA79EA7AFA7B8AB6DA57EA576
:101A60008FA598A920E030E040E85FE30E942504BC
:101A700088232CF481E090E09CA78BA73FC06DA544
:101A80007EA58FA598A920E03FEF4FE757E40E947D
:101A9000C50318164CF569A97AA98BA99CA920E061
:101AA00030E040E251E40E941F02DC01CB01BC01A6
:101AB000CD010E944900DC01CB019CA78BA70FC080
:101AC00080E991E09AA789A789A59AA50197F1F7DE
:101AD0009AA789A78BA59CA501979CA78BA78BA5E7
:101AE0009CA5009769F714C06DA57EA58FA598A940
:101AF0000E944900DC01CB019CA78BA78BA59CA56C
:101B000098A78FA38FA198A50197F1F798A78FA306
:101B1000A8E3B0E0E8E3F0E08081887E8C93A8E35E
:101B2000B0E0E8E3F0E08081282FFE01E35BFF4FA7
:101B30008081882F90E088709070880F991F982F6F
:101B4000FE01E35BFF4F80818770892B822B8C9392
:101B5000ABE3B0E0EBE3F0E0808184608C9380E065
:101B600090E0A0E8BFE38BA39CA3ADA3BEA36BA1B1
:101B70007CA18DA19EA12BEA3AEA4AEA50E40E9498
:101B80001F02DC01CB018F8F98A3A9A3BAA36F8D8D
:101B900078A189A19AA120E030E040E85FE30E94AB
:101BA000250488231CF481E08E8F91C06F8D78A16D
:101BB00089A19AA120E030E04FE753E40E94C503D9
:101BC00018160CF07BC06BA17CA18DA19EA120E01A
:101BD00030E04AE754E40E941903DC01CB018A8F0C
:101BE0009B8FAC8FBD8F6A8D7B8D8C8D9D8D20E002
:101BF00030E04AE755E40E941F02DC01CB018E8BE6
:101C00009F8BA88FB98F6E897F89888D998D20E0F1
:101C100030E040E85FE30E94250488232CF481E053
:101C200090E09D8B8C8B3FC06E897F89888D998DCC
:101C300020E03FEF4FE757E40E94C50318164CF52C
:101C40006A8D7B8D8C8D9D8D20E030E040E251E4EB
:101C50000E941F02DC01CB01BC01CD010E944900A2
:101C6000DC01CB019D8B8C8B0FC080E991E09B8BBD
:101C70008A8B8A899B890197F1F79B8B8A8B8C8948
:101C80009D8901979D8B8C8B8C899D89009769F725
:101C900024C06E897F89888D998D0E944900DC015E
:101CA000CB019D8B8C8B8C899D89998B888B8889A6
:101CB00099890197F1F7998B888B0FC06F8D78A167
:101CC00089A19AA10E944900DC01CB018E8F8E8DE3
:101CD0008F878F858A95F1F78F87ABE3B0E0EBE3D1
:101CE000F0E080818B7F8C9380E090E0A0E0B0E416
:101CF0008B879C87AD87BE876B857C858D859E8510
:101D000020E030E04AE755E40E941F02DC01CB01ED
:101D10008F839887A987BA876F81788589859A8507
:101D200020E030E040E85FE30E94250488232CF4A3
:101D300081E090E09E838D833FC06F8178858985A7
:101D40009A8520E03FEF4FE757E40E94C50318163D
:101D50004CF56B857C858D859E8520E030E040E2EA
:101D600051E40E941F02DC01CB01BC01CD010E94A5
:101D70004900DC01CB019E838D830FC080E991E097
:101D80009C838B838B819C810197F1F79C838B8350
:101D90008D819E8101979E838D838D819E81009789
:101DA00069F714C06F81788589859A850E944900FA
:101DB000DC01CB019E838D838D819E819A838983F3
:101DC00089819A810197F1F79A838983C35BDF4FF9
:101DD0000FB6F894DEBF0FBECDBFCF91DF911F913C
:101DE0000F9108950F931F93DF93CF93CDB7DEB775
:101DF000C156D0400FB6F894DEBF0FBECDBFFE0176
:101E0000EF59FF4F8083A8E3B0E0E8E3F0E0808182
:101E1000887E8C93A8E3B0E0E8E3F0E08081282F8F
:101E2000FE01EF59FF4F808182958F70882F90E0DF
:101E300088709070880F991F982FFE01EF59FF4FFF
:101E4000808182958F708770892B822B8C93ABE376
:101E5000B0E0EBE3F0E0808188608C93ABE3B0E02E
:101E6000EBE3F0E0808184608C93FE01E35AFF4F46
:101E700080E090E0A0E8BFE380839183A283B383F6
:101E80008E01075A1F4FFE01E35AFF4F6081718197
:101E9000828193812BEA3AEA4AEA50E40E941F02C7
:101EA000DC01CB01F80180839183A283B383FE011F
:101EB000E75AFF4F608171818281938120E030E099
:101EC00040E85FE30E942504882334F4FE01E85AC9
:101ED000FF4F81E08083E0C0FE01E75AFF4F608141
:101EE00071818281938120E030E04FE753E40E94CA
:101EF000C50318160CF0C0C0FE01E35AFF4F608105
:101F000071818281938120E030E04AE754E40E94AD
:101F10001903DC01CB01FE01EC5AFF4F8083918352
:101F2000A283B3838E01005B1F4FFE01EC5AFF4F6B
:101F3000608171818281938120E030E04AE755E43D
:101F40000E941F02DC01CB01F80180839183A283F0
:101F5000B383FE01E05BFF4F6081718182819381D9
:101F600020E030E040E85FE30E942504882344F449
:101F7000FE01E25BFF4F81E090E09183808364C0CB
:101F8000FE01E05BFF4F608171818281938120E0DF
:101F90003FEF4FE757E40E94C50318160CF043C00B
:101FA000FE01EC5AFF4F608171818281938120E0B4
:101FB00030E040E251E40E941F02DC01CB018E01BF
:101FC000025B1F4FBC01CD010E944900DC01CB0127
:101FD000F801918380831FC0FE01E45BFF4F80E91D
:101FE00091E091838083FE01E45BFF4F80819181CA
:101FF0000197F1F7FE01E45BFF4F91838083DE01DF
:10200000A25BBF4FFE01E25BFF4F80819181019790
:1020100011969C938E93FE01E25BFF4F808191812C
:102020000097D1F64BC08E01025B1F4FFE01E05BB3
:10203000FF4F60817181828193810E944900DC01A0
:10204000CB01F80191838083DE01A65BBF4FFE01C7
:10205000E25BFF4F8081918111969C938E93FE01EC
:10206000E65BFF4F808191810197F1F7FE01E65B0E
:10207000FF4F9183808322C08E01085A1F4FFE01BB
:10208000E75AFF4F60817181828193810E944900EC
:10209000DC01CB01F8018083DE01A75BBF4FFE01AD
:1020A000E85AFF4F80818C93FE01E75BFF4F8081F0
:1020B0008A95F1F7FE01E75BFF4F8083ABE3B0E069
:1020C000EBE3F0E080818B7F8C93FE01EB5BFF4FB5
:1020D00080E090E0A8ECB2E480839183A283B38394
:1020E0008E010F5B1F4FFE01EB5BFF4F6081718123
:1020F000828193812BEA3AEA4AEA50E40E941F0265
:10210000DC01CB01F80180839183A283B383FE01BC
:10211000EF5BFF4F608171818281938120E030E02D
:1021200040E85FE30E942504882334F481E0FE0147
:10213000E05CFF4F80839DC0FE01EF5BFF4F60813D
:1021400071818281938120E030E04FE753E40E9467
:10215000C50318160CF07EC0FE01EB5BFF4F6081DB
:1021600071818281938120E030E04AE754E40E944B
:102170001903DC01CB018CAF9DAFAEAFBFAF6CAD2F
:102180007DAD8EAD9FAD20E030E04AE755E40E9482
:102190001F02DC01CB0188AF99AFAAAFBBAF68AD1E
:1021A00079AD8AAD9BAD20E030E040E85FE30E946E
:1021B000250488232CF481E090E09FAB8EAB3FC0D8
:1021C00068AD79AD8AAD9BAD20E03FEF4FE757E4B6
:1021D0000E94C50318164CF56CAD7DAD8EAD9FAD5C
:1021E00020E030E040E251E40E941F02DC01CB011C
:1021F000BC01CD010E944900DC01CB019FAB8EAB3D
:102200000FC080E991E09DAB8CAB8CA99DA9019793
:10221000F1F79DAB8CAB8EA99FA901979FAB8EABBD
:102220008EA99FA9009769F72DC068AD79AD8AADD9
:102230009BAD0E944900DC01CB019FAB8EAB8EA908
:102240009FA99BAB8AAB8AA99BA90197F1F79BAB8E
:102250008AAB18C0FE01EF5BFF4F60817181828104
:1022600093810E944900DC01CB01FE01E05CFF4F3D
:102270008083FE01E05CFF4F808189AB89A98A954C
:10228000F1F789ABA8E3B0E0E8E3F0E08081887E75
:102290008C93A8E3B0E0E8E3F0E08081282FFE0112
:1022A000EF59FF4F8081882F90E088709070880FE1
:1022B000991F982FFE01EF59FF4F80818770892B5E
:1022C000822B8C93ABE3B0E0EBE3F0E080818460A1
:1022D0008C9380E090E0A0E8BFE38DA79EA7AFA716
:1022E000B8AB6DA57EA58FA598A92BEA3AEA4AEA74
:1022F00050E40E941F02DC01CB0189A79AA7ABA77B
:10230000BCA769A57AA58BA59CA520E030E040E894
:102310005FE30E94250488231CF481E088A791C014
:1023200069A57AA58BA59CA520E030E04FE753E492
:102330000E94C50318160CF07BC06DA57EA58FA565
:1023400098A920E030E04AE754E40E941903DC0138
:10235000CB018CA39DA3AEA3BFA36CA17DA18EA135
:102360009FA120E030E04AE755E40E941F02DC0113
:10237000CB0188A399A3AAA3BBA368A179A18AA131
:102380009BA120E030E040E85FE30E942504882321
:102390002CF481E090E09F8F8E8F3FC068A179A1DF
:1023A0008AA19BA120E03FEF4FE757E40E94C503BD
:1023B00018164CF56CA17DA18EA19FA120E030E004
:1023C00040E251E40E941F02DC01CB01BC01CD01BF
:1023D0000E944900DC01CB019F8F8E8F0FC080E9E6
:1023E00091E09D8F8C8F8C8D9D8D0197F1F79D8F46
:1023F0008C8F8E8D9F8D01979F8F8E8F8E8D9F8D51
:10240000009769F724C068A179A18AA19BA10E94C5
:102410004900DC01CB019F8F8E8F8E8D9F8D9B8F0E
:102420008A8F8A8D9B8D0197F1F79B8F8A8F0FC0C2
:1024300069A57AA58BA59CA50E944900DC01CB016A
:1024400088A788A5898F898D8A95F1F7898FABE355
:10245000B0E0EBE3F0E080818B7F8C9380E090E054
:10246000A8ECB2E48D8B9E8BAF8BB88F6D897E8983
:102470008F89988D2BEA3AEA4AEA50E40E941F02BB
:10248000DC01CB01898B9A8BAB8BBC8B69897A89F8
:102490008B899C8920E030E040E85FE30E942504BE
:1024A00088231CF481E0888B91C069897A898B89A3
:1024B0009C8920E030E04FE753E40E94C5031816E2
:1024C0000CF07BC06D897E898F89988D20E030E08B
:1024D0004AE754E40E941903DC01CB018C879D87F5
:1024E000AE87BF876C857D858E859F8520E030E037
:1024F0004AE755E40E941F02DC01CB0188879987D7
:10250000AA87BB87688579858A859B8520E030E02E
:1025100040E85FE30E94250488232CF481E090E0EA
:102520009F838E833FC0688579858A859B8520E05F
:102530003FEF4FE757E40E94C50318164CF56C8532
:102540007D858E859F8520E030E040E251E40E9449
:102550001F02DC01CB01BC01CD010E944900DC015E
:10256000CB019F838E830FC080E991E09D838C8394
:102570008C819D810197F1F79D838C838E819F8152
:1025800001979F838E838E819F81009769F724C076
:10259000688579858A859B850E944900DC01CB018D
:1025A0009F838E838E819F819B838A838A819B8177
:1025B0000197F1F79B838A830FC069897A898B8998
:1025C0009C890E944900DC01CB01888B8889898322
:1025D00089818A95F1F78983CF59DF4F0FB6F89437
:1025E000DEBF0FBECDBFCF91DF911F910F91089538
:1025F000DF93CF9300D000D0CDB7DEB79C838B8321
:102600001A8219820FC029813A818B819C81FC0139
:10261000E20FF31F80810E94F20E89819A81019658
:102620009A83898329813A818B819C81FC01E20F05
:10263000F31F8081882339F70F900F900F900F9030
:10264000CF91DF910895DF93CF9300D000D00F9208
:10265000CDB7DEB78A836B8319828A81282F30E059
:102660003D832C838C819D8181309105C1F02C812B
:102670003D81223031052CF48C819D81009761F0E1
:1026800019C02C813D812230310569F08C819D81FA
:102690008330910561F00EC08B8189830BC08B81E3
:1026A000805C898307C08B818C5E898303C08B81AA
:1026B0008C5A8983898180680E94E50B0F900F9066
:1026C0000F900F900F90CF91DF910895DF93CF93EC
:1026D000CDB7DEB781E00E94E50BCF91DF91089581
:1026E000DF93CF93CDB7DEB7AAE3B0E0EAE3F0E043
:1026F000808180618C93AAE3B0E0EAE3F0E080811E
:1027000080628C93AAE3B0E0EAE3F0E08081806429
:102710008C93A7E3B0E0E7E3F0E0808180688C93DE
:10272000CF91DF910895DF93CF9300D00F92CDB773
:10273000DEB789838981282F30E03B832A838A8111
:102740009B8187349105B1F02A813B812834310582
:1027500034F48A819B8182349105A1F02BC02A81B7
:102760003B8122353105F1F08A819B8189359105C4
:1027700089F020C0ABE3B0E0EBE3F0E08081806162
:102780008C9334C0ABE3B0E0EBE3F0E08081806297
:102790008C932CC0ABE3B0E0EBE3F0E0808180648D
:1027A0008C9324C0A8E3B0E0E8E3F0E08081806887
:1027B0008C931CC0ABE3B0E0EBE3F0E08081806180
:1027C0008C93ABE3B0E0EBE3F0E0808180628C932C
:1027D000ABE3B0E0EBE3F0E0808180648C93A8E3AE
:1027E000B0E0E8E3F0E0808180688C930F900F9078
:1027F0000F90CF91DF910895DF93CF9300D00F9288
:10280000CDB7DEB789838981282F30E03B832A83C7
:102810008A819B8187349105B1F02A813B812834DC
:10282000310534F48A819B8182349105A1F02BC05B
:102830002A813B8122353105F1F08A819B818935DE
:10284000910589F020C0ABE3B0E0EBE3F0E08081DC
:102850008F7E8C9334C0ABE3B0E0EBE3F0E080819B
:102860008F7D8C932CC0ABE3B0E0EBE3F0E0808194
:102870008F7B8C9324C0A8E3B0E0E8E3F0E0808194
:102880008F778C931CC0ABE3B0E0EBE3F0E080818A
:102890008F7E8C93ABE3B0E0EBE3F0E080818F7D43
:1028A0008C93ABE3B0E0EBE3F0E080818F7B8C9323
:1028B000A8E3B0E0E8E3F0E080818F778C930F909D
:1028C0000F900F90CF91DF910895DF93CF9300D0B9
:1028D0000F92CDB7DEB789838981282F30E03B8303
:1028E0002A838A819B8187349105B1F02A813B81BB
:1028F0002834310534F48A819B8182349105A9F012
:102900002FC02A813B812235310509F18A819B81C3
:102910008935910599F024C0ABE3B0E0EBE3F0E03A
:10292000908180E189278C933BC0ABE3B0E0EBE37F
:10293000F0E0908180E289278C9332C0ABE3B0E075
:10294000EBE3F0E0908180E489278C9329C0A8E331
:10295000B0E0E8E3F0E0908180E889278C9320C024
:10296000ABE3B0E0EBE3F0E0908180E189278C936A
:10297000ABE3B0E0EBE3F0E0908180E289278C9359
:10298000ABE3B0E0EBE3F0E0908180E489278C9347
:10299000A8E3B0E0E8E3F0E0908180E889278C9339
:1029A0000F900F900F90CF91DF910895DF93CF9309
:1029B000CDB7DEB7A7E3B0E0E7E3F0E08081816068
:1029C0008C93A7E3B0E0E7E3F0E0808182608C9332
:1029D000A7E3B0E0E7E3F0E0808184608C93A7E3B5
:1029E000B0E0E7E3F0E0808180618C93A8E3B0E0A1
:1029F000E8E3F0E08081887E8C93A7E3B0E0E7E332
:102A0000F0E0808180648C93A7E3B0E0E7E3F0E03E
:102A1000808180628C93AAE3B0E0EAE3F0E08081F9
:102A200084608C93AAE3B0E0EAE3F0E08081886000
:102A30008C93CF91DF910895DF93CF9300D0CDB7E2
:102A4000DEB79A838983A8E3B0E0E8E3F0E0808111
:102A5000887E8C93A8E3B0E0E8E3F0E08081282F43
:102A600089819A8188709070880F991F982F898129
:102A70008770892B822B8C930F900F90CF91DF91D1
:102A80000895DF93CF93CDB7DEB7C454D0400FB6CF
:102A9000F894DEBF0FBECDBFFE01ED5BFF4F91830B
:102AA0008083FE01ED5BFF4F8081918128EE33E052
:102AB000B9010E94F91BCB01FE01EF5BFF4F2AE039
:102AC00030E0B9010E94F91B91838083FE01ED5B28
:102AD000FF4F8081918124E630E0B9010E94F91B0B
:102AE000CB012AE030E0B9010E94F91BFE01FF96FC
:102AF00091838083FE01ED5BFF4F808191812AE00D
:102B000030E0B9010E94F91BCB012AE030E0B901A5
:102B10000E94F91B9EAF8DAFFE01ED5BFF4F8081E0
:102B200091812AE030E0B9010E94F91B9CAF8BAF84
:102B30001AAE19AE02C2FE01EF5BFF4F8081918198
:102B40000E941C1580E090E0A0E0B0E48DAB9EAB4D
:102B5000AFABB8AF6DA97EA98FA998AD20E030E0EA
:102B60004AE755E40E941F02DC01CB0189AB9AAB16
:102B7000ABABBCAB69A97AA98BA99CA920E030E0DA
:102B800040E85FE30E94250488232CF481E090E074
:102B900098AB8FA73FC069A97AA98BA99CA920E00F
:102BA0003FEF4FE757E40E94C50318164CF56DA997
:102BB0007EA98FA998AD20E030E040E251E40E9468
:102BC0001F02DC01CB01BC01CD010E944900DC01E8
:102BD000CB0198AB8FA70FC080E991E09EA78DA78E
:102BE0008DA59EA50197F1F79EA78DA78FA598A902
:102BF000019798AB8FA78FA598A9009769F714C084
:102C000069A97AA98BA99CA90E944900DC01CB0182
:102C100098AB8FA78FA598A99CA78BA78BA59CA5E0
:102C20000197F1F79CA78BA7A8E3B0E0E8E3F0E0F9
:102C3000908180E489278C93FE01FF9680819181A9
:102C40000E941C1580E090E0A0E0B0E48FA398A75C
:102C5000A9A7BAA76FA178A589A59AA520E030E019
:102C60004AE755E40E941F02DC01CB018BA39CA321
:102C7000ADA3BEA36BA17CA18DA19EA120E030E0FD
:102C800040E85FE30E94250488232CF481E090E073
:102C90009AA389A33FC06BA17CA18DA19EA120E036
:102CA0003FEF4FE757E40E94C50318164CF56FA19C
:102CB00078A589A59AA520E030E040E251E40E9481
:102CC0001F02DC01CB01BC01CD010E944900DC01E7
:102CD000CB019AA389A30FC080E991E098A38F8FBD
:102CE0008F8D98A10197F1F798A38F8F89A19AA151
:102CF00001979AA389A389A19AA1009769F714C0A3
:102D00006BA17CA18DA19EA10E944900DC01CB0199
:102D10009AA389A389A19AA19E8F8D8F8D8D9E8D57
:102D20000197F1F79E8F8D8FA8E3B0E0E8E3F0E024
:102D3000908180E289278C938DAD9EAD0E941C15F9
:102D400080E090E0A0E0B0E4898F9A8FAB8FBC8FD9
:102D5000698D7A8D8B8D9C8D20E030E04AE755E4BB
:102D60000E941F02DC01CB018D8B9E8BAF8BB88F35
:102D70006D897E898F89988D20E030E040E85FE39F
:102D80000E94250488232CF481E090E09C8B8B8B9F
:102D90003FC06D897E898F89988D20E03FEF4FE796
:102DA00057E40E94C50318164CF5698D7A8D8B8DFA
:102DB0009C8D20E030E040E251E40E941F02DC01E3
:102DC000CB01BC01CD010E944900DC01CB019C8BF1
:102DD0008B8B0FC080E991E09A8B898B89899A89C6
:102DE0000197F1F79A8B898B8B899C8901979C8B32
:102DF0008B8B8B899C89009769F714C06D897E89BC
:102E00008F89988D0E944900DC01CB019C8B8B8BB4
:102E10008B899C89988B8F878F8598890197F1F78B
:102E2000988B8F87ABE3B0E0EBE3F0E0908184E038
:102E300089278C938BAD9CAD0E941C1580E090E09F
:102E4000A0E0B0E48B879C87AD87BE876B857C85CF
:102E50008D859E8520E030E04AE755E40E941F0200
:102E6000DC01CB018F839887A987BA876F8178852A
:102E700089859A8520E030E040E85FE30E942504E0
:102E800088232CF481E090E09E838D833FC06F8186
:102E9000788589859A8520E03FEF4FE757E40E94C7
:102EA000C50318164CF56B857C858D859E8520E0C5
:102EB00030E040E251E40E941F02DC01CB01BC0182
:102EC000CD010E944900DC01CB019E838D830FC0A0
:102ED00080E991E09C838B838B819C810197F1F742
:102EE0009C838B838D819E8101979E838D838D81B1
:102EF0009E81009769F714C06F81788589859A85CE
:102F00000E944900DC01CB019E838D838D819E81CF
:102F10009A83898389819A810197F1F79A838983BA
:102F2000ABE3B0E0EBE3F0E0908188E089278C939D
:102F300089AD9AAD05969AAF89AF89AD9AAD23E078
:102F4000883E920708F4F7CDCC5BDF4F0FB6F894BC
:102F5000DEBF0FBECDBFCF91DF910895DF93CF933A
:102F6000CDB7DEB7A8E3B0E0E8E3F0E080818064AD
:102F70008C93A8E3B0E0E8E3F0E0808180628C937A
:102F8000ABE3B0E0EBE3F0E0808184608C93ABE3F3
:102F9000B0E0EBE3F0E0808188608C93CF91DF912B
:102FA00008951F920F920FB60F9211242F933F9303
:102FB0004F935F936F937F938F939F93AF93BF9341
:102FC000EF93FF93DF93CF93CDB7DEB780919C0053
:102FD00090919D00009729F0E0919C00F0919D0058
:102FE0000995CF91DF91FF91EF91BF91AF919F91A3
:102FF0008F917F916F915F914F913F912F910F90A2
:103000000FBE0F901F901895DF93CF93CDB7DEB70B
:10301000E2E5F0E01082A9E5B0E0E9E5F0E08081CA
:1030200081608C93E3E5F0E085E88083AFE5B0E074
:10303000EFE5F0E0808180688C93CF91DF91089577
:10304000DF93CF9300D0CDB7DEB79A838983898190
:103050009A8190939D0080939C000F900F90CF9148
:10306000DF910895DF93CF930F92CDB7DEB78983B9
:103070008981805D0F90CF91DF910895DF93CF9389
:10308000CDB7DEB7A2970FB6F894DEBF0FBECDBFA7
:10309000998F888F6A8F2DB73EB73AA329A38DB732
:1030A0009EB79C8F8B8F8A8D882F90E0880F991FF9
:1030B000880F991F880F991F2DB73EB7281B390B12
:1030C0000FB6F8943EBF0FBE2DBF8DB79EB70196C9
:1030D00098A38F8F8F8D98A1009698A38F8F2F8D97
:1030E00038A13F8B2E8B188A1F8627C01E861D860F
:1030F0001AC08F8598892D853E854E895F89880FF6
:10310000991F880F991F820F931F880F991FFA012B
:10311000E80FF91F8AE090E0918380838D859E857A
:1031200001969E878D878D859E858430910508F355
:103130008F8598890196988B8F878A8D282F30E00C
:103140008F8598898217930788F21C861B8649C051
:103150008B859C859C01220F331F888D998DFC01E6
:10316000E20FF31F808191819A87898718861F82D9
:103170001E821D822DC089859A852AE030E0B90122
:103180000E94E51B98878F8389859A852AE030E025
:10319000B9010E94E51BCB019A8789878B859C85A5
:1031A0002D813E814E895F89880F991F880F991F55
:1031B000820F931F880F991FFA01E80FF91F8F8163
:1031C0009885918380838D819E8101969E838D83D6
:1031D00089859A85009779F68B859C8501969C87D1
:1031E0008B878A8D282F30E08B859C8582179307EB
:1031F00008F4AECF8A8D882F90E0880F991F880F32
:10320000991F8B8B8B89882F90E02DB73EB7281B99
:10321000390B0FB6F8943EBF0FBE2DBF8DB79EB7CA
:1032200001969E8F8D8F8D8D9E8D00969E8F8D8F9A
:103230002D8D3E8D3D8B2C8B1A8A198A1C821B8208
:103240005BC083E090E09A8389833DC08B819C8141
:1032500029813A814E895F89880F991F880F991FAC
:10326000820F931F880F991FFA01E80FF91F8081C1
:1032700091818A30910511F169897A898B819C81CC
:1032800029813A814E895F89880F991F880F991F7C
:10329000820F931F880F991FFA01E80FF91F808191
:1032A0009181C096282F8C899D89FC01E60FF71F1C
:1032B000208389899A8901969A8B898B89819A8141
:1032C00001979A83898389819A818430910508F4D2
:1032D000BDCF29893A898C899D89FC01E20FF31FB2
:1032E0008DE2808389899A8901969A8B898B8B815B
:1032F0009C8101969C838B838A8D282F30E08B8163
:103300009C818217930708F49CCF89899A899C0134
:10331000215030408C899D89FC01E20FF31F1082FF
:103320008C899D890E94F8128B8D9C8D0FB6F89424
:103330009EBF0FBE8DBF29A13AA10FB6F8943EBF24
:103340000FBE2DBFA2960FB6F894DEBF0FBECDBF45
:10335000CF91DF910895DF93CF93CDB7DEB7289754
:103360000FB6F894DEBF0FBECDBF9F838E836887F4
:103370001D8268C08D818B838D818F5F8C8322C07D
:103380008C81882F90E09C01220F331F8E819F81BA
:10339000FC01E20FF31F408151818B81882F90E067
:1033A0009C01220F331F8E819F81FC01E20FF31FCE
:1033B000808191814817590710F48C818B838C810F
:1033C0008F5F8C839C8188859817D0F28B81882FA2
:1033D00090E09C01220F331F8E819F81FC01E20F40
:1033E000F31F808191819A8389838B81882F90E05C
:1033F0009C01220F331F8E819F81DC01A20FB31F1E
:103400008D81882F90E09C01220F331F8E819F8138
:10341000FC01E20FF31F8081918111969C938E93A2
:103420008D81882F90E09C01220F331F8E819F8118
:10343000FC01E20FF31F89819A81918380838D8142
:103440008F5F8D838D81282F30E08885882F90E0D5
:103450000197281739070CF48DCF28960FB6F894EA
:10346000DEBF0FBECDBFCF91DF910895DF93CF9325
:10347000CDB7DEB780919E008F5F80939E008091D4
:103480009E008E33D1F480919F008130B1F4809101
:10349000B400882F90E0880F991FFC01E056FF4F81
:1034A000808191810E9441158091B4008F5F80934B
:1034B000B40010929E000E9466130E94AE17CF9136
:1034C000DF910895DF93CF93CDB7DEB72B970FB67B
:1034D000F894DEBF0FBECDBF1F821E821D821C82EC
:1034E0001B821A820E944F090E94400B0E94D61430
:1034F0000E94041886E39AE10E94201880E690E07A
:103500000E94F81282E061E00E94231380E790E0BD
:103510000E94F8120E94AE170E94AA09898389812D
:103520008F3FC1F38E81843008F01CC189818C30BB
:1035300009F418C189818E3009F414C189818F3052
:1035400009F410C18981282F30E03B872A878A85BA
:103550009B858530910509F465C02A853B85263019
:103560003105E4F48A859B858130910509F442C0D8
:103570002A853B85223031052CF48A859B8500976E
:1035800089F17DC02A853B8522303105D9F18A85B4
:103590009B858430910509F43DC071C02A853B8527
:1035A0002930310509F456C08A859B858A309105FA
:1035B00064F42A853B8526303105E1F18A859B85B7
:1035C0008830910509F43EC05AC02A853B852A30CF
:1035D000310509F447C08A859B858D30910509F432
:1035E00049C04DC087E090E09D838C838E818F5FC2
:1035F0008E8345C088E090E09D838C838E818F5FB1
:103600008E833DC089E090E09D838C838E818F5FA7
:103610008E8335C084E090E09D838C838E818F5FA4
:103620008E832DC085E090E09D838C838E818F5F9B
:103630008E8325C086E090E09D838C838E818F5F92
:103640008E831DC081E090E09D838C838E818F5F8F
:103650008E8315C082E090E09D838C838E818F5F86
:103660008E830DC083E090E09D838C838E818F5F7D
:103670008E8305C01D821C828E818F5F8E838E811A
:10368000282F30E0398728878885998582309105F1
:10369000F9F0288539852330310534F488859985FA
:1036A0008130910561F058C0288539852330310576
:1036B00031F18885998584309105C1F14DC08A81A9
:1036C0009B812C813D81820F931F9B838A8344C001
:1036D0008A819B819C01220F331FC901880F991F8A
:1036E000880F991F820F931F9B838A832A813B81B6
:1036F0008C819D81820F931F9B838A832DC08A8139
:103700009B819C01220F331FC901880F991F880FCD
:10371000991F820F931F9B838A832A813B818C810F
:103720009D81820F931F9B838A8316C08A819B8110
:103730009C01220F331FC901880F991F880F991F01
:10374000820F931F9B838A832A813B818C819D8179
:10375000820F931F9B838A838C810E9432180E9460
:10376000F20ED8CE89818C30A9F40E9466131E8295
:103770008F81882F90E0880F991FFC01E056FF4F42
:103780008A819B81918380831B821A828F818F5FC4
:103790008F83C0CE89818E3089F480EA90E06F817A
:1037A0000E94AB1980EA90E06F810E943E1881E090
:1037B00080939F0089E180939E00ACCE89818F30F9
:1037C00009F0A8CE0E946613A5CEAA1BBB1B51E12F
:1037D00007C0AA1FBB1FA617B70710F0A61BB70B81
:1037E000881F991F5A95A9F780959095BC01CD0126
:1037F000089597FB092E07260AD077FD04D0E5DF50
:1038000006D000201AF4709561957F4F0895F6F761
:10381000909581959F4F08952F923F924F925F927E
:103820006F927F928F929F92AF92BF92CF92DF92D0
:10383000EF92FF920F931F93CF93DF93CDB7DEB735
:10384000CA1BDB0B0FB6F894DEBF0FBECDBF0994C9
:103850002A88398848885F846E847D848C849B8420
:10386000AA84B984C884DF80EE80FD800C811B812E
:10387000AA81B981CE0FD11D0FB6F894DEBF0FBE5D
:0A388000CDBFED010895F894FFCFCD
:10388A00202020202048454C4C4F20212121210076
:10389A002020454E54455220594F5552204C4953E9
:1038AA0054000000000000000000000102030405AB
:0A38BA00060708090A0B0C0D0E0F9B
:00000001FF
